S01200004156525F4472697665722E737265635E
S11300000C942A000C944A000C9473000C9447003E
S11300100C9447000C9447000C943E010C94EC00A3
S11300200C9415010C94C3000C949C000C94470090
S11300300C9447000C9447000C9447000C94470020
S11300400C9447000C9447000C9447000C94470010
S11300500C94470011241FBECFE5D8E0DEBFCDBF0E
S113006010E0A0E6B0E0E2EDF2E002C005900D92EF
S1130070A036B107D9F720E0A0E6B0E001C01D9298
S1130080AE36B207E1F70E9449000C9467010C9464
S11300900000FFCF1F920F920FB60F9211242F93DF
S11300A03F934F935F936F937F938F939F93AF93FC
S11300B0BF93EF93FF93E0916200F0916300309758
S11300C009F00995FF91EF91BF91AF919F918F91A5
S11300D07F916F915F914F913F912F910F900FBE40
S11300E00F901F9018951F920F920FB60F92112424
S11300F02F933F934F935F936F937F938F939F932C
S1130100AF93BF93EF93FF93E0916000F091610090
S1130110309709F00995FF91EF91BF91AF919F91AD
S11301208F917F916F915F914F913F912F910F909C
S11301300FBE0F901F9018951F920F920FB60F923B
S113014011242F933F934F935F936F937F938F93D8
S11301509F93AF93BF93EF93FF93E0916C00F09163
S11301606D000995FF91EF91BF91AF919F918F9190
S11301707F916F915F914F913F912F910F900FBE9F
S11301800F901F9018951F920F920FB60F92112483
S11301902F933F934F935F936F937F938F939F938B
S11301A0AF93BF93EF93FF93E0916A00F0916B00DC
S11301B0309709F00995FF91EF91BF91AF919F910D
S11301C08F917F916F915F914F913F912F910F90FC
S11301D00FBE0F901F9018951F920F920FB60F929B
S11301E011242F933F934F935F936F937F938F9338
S11301F09F93AF93BF93EF93FF93E0916800F091C7
S11302006900309709F00995FF91EF91BF91AF9183
S11302109F918F917F916F915F914F913F912F911A
S11302200F900FBE0F901F9018951F920F920FB64C
S11302300F9211242F933F934F935F936F937F9368
S11302408F939F93AF93BF93EF93FF93E0916600D7
S1130250F0916700309709F00995FF91EF91BF91F4
S1130260AF919F918F917F916F915F914F913F914A
S11302702F910F900FBE0F901F9018951F920F9201
S11302800FB60F9211242F933F934F935F936F9365
S11302907F938F939F93AF93BF93EF93FF93E091DB
S11302A06400F0916500309709F00995FF91EF9192
S11302B0BF91AF919F918F917F916F915F914F917A
S11302C03F912F910F900FBE0F901F901895F894A7
S10502D0FFCF5A
S9030000FC
