:100000000C9431000C944E040C9477040C94A004CE
:100010000C94DE050C94B5050C948E050C944005EB
:100020000C9467050C9419050C94F2040C94C90403
:100030000C944E000C944E000C944E000C944E0008
:100040000C944E000C944E000C944E000C944E00F8
:100050000C944E00760280028A0294029E02A8024C
:10006000B20211241FBECFE5D8E0DEBFCDBF10E045
:10007000A0E6B0E0E6E1F0E102C005900D92A03804
:10008000B107D9F720E0A0E8B0E001C01D92A63981
:10009000B207E1F70E942E020C9409080C940000AC
:1000A000CF93C82F84FB662760F984E00E94C903C0
:1000B000C5FB662760F985E00E94C903C6FB662779
:1000C00060F986E00E94C9036C2F661F6627661FD1
:1000D00087E00E94C90360E088E00E94C90360E0F5
:1000E00089E00E94C90361E08BE00E94C9038FECA4
:1000F00097E00197F1F700C0000060E08BE00E94FC
:10010000C9036C2F617084E00E94C903C1FB66279C
:1001100060F985E00E94C903C2FB662760F986E0AA
:100120000E94C903C3FB662760F987E00E94C903E8
:1001300060E088E00E94C90360E089E00E94C90392
:1001400061E08BE00E94C9038FEC97E00197F1F723
:1001500000C0000060E08BE00E94C9038FE097E2DE
:100160000197F1F700C00000CF9108958FE39CE95B
:100170000197F1F700C0000082E00E9450008FEC70
:1001800097E00197F1F700C0000088E20E9450005C
:100190008FEC97E00197F1F700C000008CE00E941F
:1001A00050008FEC97E00197F1F700C0000081E06C
:1001B0000E9450008FE99FE00197F1F700C0000016
:1001C00086E00E9450008FEC97E00197F1F700C0A5
:1001D000000080E80E9450000895CF93C82F84FB50
:1001E000662760F984E00E94C903C5FB662760F9B1
:1001F00085E00E94C903C6FB662760F986E00E947D
:10020000C9036C2F661F6627661F87E00E94C9031B
:1002100061E088E00E94C90360E089E00E94C903B0
:1002200061E08BE00E94C9038FEC97E00197F1F742
:1002300000C0000060E08BE00E94C9036C2F617079
:1002400084E00E94C903C1FB662760F985E00E9433
:10025000C903C2FB662760F986E00E94C903C3FB9D
:10026000662760F987E00E94C90361E088E00E9488
:10027000C90360E089E00E94C90361E08BE00E944D
:10028000C9038FEC97E00197F1F700C0000060E030
:100290008BE00E94C903CF910895882329F0813013
:1002A00031F080E090E005C080E890E002C080EC92
:1002B00090E0603110F4860F911D0E945000089567
:1002C0008F929F92AF92BF92EF92FF921F93CF9324
:1002D000DF93CDB7DEB760970FB6F894DEBF0FBEE1
:1002E000CDBF4B015C0120E030E0A9010E94720605
:1002F000811103C080E30E94ED0020E030E0A901FD
:10030000C501B4010E94720688233CF4B7FAB09488
:10031000B7F8B0948DE20E94ED00C501B4010E94CF
:1003200077067B01072E000C880B990B0E94AF0605
:100330009B01AC01C501B4010E9405064B015C01A3
:1003400010E010C0C7016AE070E00E94CC07E1E055
:10035000F0E0EC0FFD1FE10FF11D805D8083E62EC4
:10036000F72E1F5FE114F10469F70DC0E12FF0E0F3
:10037000319721E030E02C0F3D1FE20FF31F808109
:100380000E94ED0011501111F1CF20E030E0A901E1
:10039000C501B4010E947206882309F44FC08EE2A1
:1003A0000E94ED0020E030E04AE754E4C501B401CA
:1003B0000E945F070E947E06AB012DC09A01ADEC42
:1003C000BCEC0E94E607969587959695879596953D
:1003D00087959C01220F331F880F991F880F991F43
:1003E000880F991F820F931F9A01281B390BC9018F
:1003F000E1E0F0E0EC0FFD1FE10FF11D805D808377
:100400009A010E94E607AC01569547955695479587
:10041000569547951F5F4115510581F60DC0E12F97
:10042000F0E0319781E090E08C0F9D1FE80FF91FFD
:1004300080810E94ED0011501111F1CF60960FB62E
:10044000F894DEBF0FBECDBFDF91CF911F91FF901B
:10045000EF90BF90AF909F908F90089578940E94F6
:10046000B9030E94B60065E081E00E944E0260E0A0
:1004700080E00E944D0160E081E00E944D0180E03B
:100480000E94C202BC0180E090E00E94AD060E9482
:10049000600160E080E00E944D01EDCF813059F0B5
:1004A00018F0823079F014C087B18F7B87B987B19B
:1004B0008F7787B90DC087B1806487B987B18F778F
:1004C00087B906C087B1806487B987B1806887B96A
:1004D00086B1887F86B9862F90E08730910508F035
:1004E0004AC0FC01E65DFF4F0C94E00786B18E7FA9
:1004F00086B986B18D7F86B986B18B7F86B93BC0C0
:1005000086B18E7F86B986B1826086B986B18B7FCF
:1005100086B931C086B1816086B986B1826086B9FC
:1005200086B18B7F86B927C086B18E7F86B986B1AA
:100530008D7F86B986B1846086B91DC086B1816021
:1005400086B986B18D7F86B986B1846086B913C0BD
:1005500086B18E7F86B986B1826086B986B18460A5
:1005600086B909C086B1816086B986B1826086B9D4
:1005700086B1846086B987B18F7D87B986B180687E
:1005800086B9089597B1907E97B997B1892B87B9AD
:1005900086B1806486B93699FECF84B195B108954D
:1005A000982F9695969596958770613031F008F45E
:1005B00054C0623009F4A1C008959130C1F028F010
:1005C000923039F19330B9F108954AB321E030E027
:1005D000B90102C0660F771F8A95E2F7CB01962F0B
:1005E000909594239ABB9BB3892B8BBB089547B3FB
:1005F00021E030E0B90102C0660F771F8A95E2F76B
:10060000CB01962F9095942397BB98B3892B88BBE9
:10061000089544B321E030E0B90102C0660F771FAE
:100620008A95E2F7CB01962F9095942394BB95B3CE
:10063000892B85BB089541B321E030E0B90102C0A8
:10064000660F771F8A95E2F7CB01962F909594233A
:1006500091BB92B3892B82BB08959130C1F028F0F1
:10066000923039F19330B9F108954AB321E030E086
:10067000B90102C0660F771F8A95E2F7CB0180951A
:10068000942F98239ABB9BB389238BBB089547B3C0
:1006900021E030E0B90102C0660F771F8A95E2F7CA
:1006A000CB018095942F982397BB98B3892388BB5F
:1006B000089544B321E030E0B90102C0660F771F0E
:1006C0008A95E2F7CB018095942F982394BB95B33C
:1006D000892385BB089541B321E030E0B90102C010
:1006E000660F771F8A95E2F7CB018095942F9823A8
:1006F00091BB92B3892382BB0895913099F028F081
:100700009230E9F0933041F108954AB321E030E0AE
:10071000B90102C0660F771F8A95E2F7CB01842BDF
:100720008ABB089547B321E030E0B90102C0660FEB
:10073000771F8A95E2F7CB01842B87BB089544B3DA
:1007400021E030E0B90102C0660F771F8A95E2F719
:10075000CB01842B84BB089541B321E030E0B90183
:1007600002C0660F771F8A95E2F7CB01842B81BB0D
:100770000895CF93C0E009C0EC2FF0E0E05AFF4F9E
:1007800060818C2F0E94D002CF5FC032A8F3CF913E
:100790000895982F96959695969587706130E1F516
:1007A000913099F028F09230E9F0933041F10895BA
:1007B0004BB321E030E0B90102C0660F771F8A9584
:1007C000E2F7CB01842B8BBB089548B321E030E0E6
:1007D000B90102C0660F771F8A95E2F7CB01842B1F
:1007E00088BB089545B321E030E0B90102C0660F2F
:1007F000771F8A95E2F7CB01842B85BB089542B31E
:1008000021E030E0B90102C0660F771F8A95E2F758
:10081000CB01842B82BB089561113FC09130A1F0C0
:1008200028F09230F9F0933059F108954BB321E05C
:1008300030E0B90102C0660F771F8A95E2F7CB015D
:10084000809584238BBB089548B321E030E0B90143
:1008500002C0660F771F8A95E2F7CB01809584234B
:1008600088BB089545B321E030E0B90102C0660FAE
:10087000771F8A95E2F7CB018095842385BB089585
:1008800042B321E030E0B90102C0660F771F8A95BC
:10089000E2F7CB018095842382BB08951F920F92CB
:1008A0000FB60F9211242F933F934F935F936F9343
:1008B0007F938F939F93AF93BF93EF93FF93E091B9
:1008C0008400F0918500309709F00995FF91EF9130
:1008D000BF91AF919F918F917F916F915F914F9158
:1008E0003F912F910F900FBE0F901F9018951F9260
:1008F0000F920FB60F9211242F933F934F935F9354
:100900006F937F938F939F93AF93BF93EF93FF93D7
:10091000E0918200F0918300309709F00995FF91F2
:10092000EF91BF91AF919F918F917F916F915F9167
:100930004F913F912F910F900FBE0F901F901895E0
:100940001F920F920FB60F9211242F933F934F9344
:100950005F936F937F938F939F93AF93BF93EF9327
:10096000FF93E0918000F0918100309709F00995A4
:10097000FF91EF91BF91AF919F918F917F916F9177
:100980005F914F913F912F910F900FBE0F901F904D
:1009900018951F920F920FB60F9211242F933F9329
:1009A0004F935F936F937F938F939F93AF93BF9377
:1009B000EF93FF93E0918800F0918900309709F060
:1009C0000995FF91EF91BF91AF919F918F917F9189
:1009D0006F915F914F913F912F910F900FBE0F90AC
:1009E0001F9018951F920F920FB60F9211242F93FC
:1009F0003F934F935F936F937F938F939F93AF93A7
:100A0000BF93EF93FF93E0918600F09187000995E3
:100A1000FF91EF91BF91AF919F918F917F916F91D6
:100A20005F914F913F912F910F900FBE0F901F90AC
:100A300018951F920F920FB60F9211242F933F9388
:100A40004F935F936F937F938F939F93AF93BF93D6
:100A5000EF93FF93E0919000F09191000995FF9141
:100A6000EF91BF91AF919F918F917F916F915F9126
:100A70004F913F912F910F900FBE0F901F9018959F
:100A80001F920F920FB60F9211242F933F934F9303
:100A90005F936F937F938F939F93AF93BF93EF93E6
:100AA000FF93E0918E00F0918F000995FF91EF91F7
:100AB000BF91AF919F918F917F916F915F914F9176
:100AC0003F912F910F900FBE0F901F9018951F927E
:100AD0000F920FB60F9211242F933F934F935F9372
:100AE0006F937F938F939F93AF93BF93EF93FF93F6
:100AF000E0918C00F0918D000995FF91EF91BF91ED
:100B0000AF919F918F917F916F915F914F913F91A5
:100B10002F910F900FBE0F901F9018951F920F925C
:100B20000FB60F9211242F933F934F935F936F93C0
:100B30007F938F939F93AF93BF93EF93FF93E09136
:100B40008A00F0918B000995FF91EF91BF91AF91D1
:100B50009F918F917F916F915F914F913F912F91D5
:100B60000F900FBE0F901F9018951F920F920FB607
:100B70000F9211242F933F934F935F936F937F9323
:100B80008F939F93AF93BF93EF93FF93E091940064
:100B9000F0919500309709F00995FF91EF91BF9181
:100BA000AF919F918F917F916F915F914F913F9105
:100BB0002F910F900FBE0F901F9018951F920F92BC
:100BC0000FB60F9211242F933F934F935F936F9320
:100BD0007F938F939F93AF93BF93EF93FF93E09196
:100BE0009200F09193000995FF91EF91BF91AF9121
:100BF0009F918F917F916F915F914F913F912F9135
:100C00000F900FBE0F901F9018955058BB27AA2722
:100C10000E941D060C9425070E94170738F00E94B9
:100C20001E0720F039F49F3F19F426F40C941407A2
:100C30000EF4E095E7FB0C940E07E92F0E943607AF
:100C400058F3BA17620773078407950720F079F401
:100C5000A6F50C9458070EF4E0950B2EBA2FA02D94
:100C60000B01B90190010C01CA01A0011124FF2759
:100C7000591B99F0593F50F4503E68F11A16F04054
:100C8000A22F232F342F4427585FF3CF4695379553
:100C90002795A795F0405395C9F77EF41F16BA0B18
:100CA000620B730B840BBAF09150A1F0FF0FBB1FC6
:100CB000661F771F881FC2F70EC0BA0F621F731F0F
:100CC000841F48F4879577956795B795F7959E3F6C
:100CD00008F0B0CF9395880F08F09927EE0F9795FD
:100CE000879508950E94EA0608F481E008950E941D
:100CF0007E066894B1110C94590708950E943E072E
:100D000088F09F5798F0B92F9927B751B0F0E1F0CC
:100D1000660F771F881F991F1AF0BA95C9F714C07C
:100D2000B13091F00E945807B1E008950C94580733
:100D3000672F782F8827B85F39F0B93FCCF38695B5
:100D400077956795B395D9F73EF490958095709512
:100D500061957F4F8F4F9F4F0895E89409C097FB8F
:100D60003EF490958095709561957F4F8F4F9F4F82
:100D70009923A9F0F92F96E9BB279395F6958795C6
:100D800077956795B795F111F8CFFAF4BB0F11F489
:100D900060FF1BC06F5F7F4F8F4F9F4F16C0882330
:100DA00011F096E911C0772321F09EE8872F762F66
:100DB00005C0662371F096E8862F70E060E02AF0A7
:100DC0009A95660F771F881FDAF7880F9695879593
:100DD00097F90895990F0008550FAA0BE0E8FEEF68
:100DE00016161706E807F907C0F012161306E407EF
:100DF000F50798F0621B730B840B950B39F40A26E8
:100E000061F0232B242B252B21F408950A2609F4C5
:100E1000A140A6958FEF811D811D089597F99F67C9
:100E200080E870E060E008959FEF80EC0895002472
:100E30000A941616170618060906089500240A943F
:100E400012161306140605060895092E0394000CC5
:100E500011F4882352F0BB0F40F4BF2B11F460FF54
:100E600004C06F5F7F4F8F4F9F4F089557FD90587D
:100E7000440F551F59F05F3F71F04795880F97FB5E
:100E8000991F61F09F3F79F0879508951216130618
:100E90001406551FF2CF4695F1DF08C01616170647
:100EA0001806991FF1CF869571056105089408957C
:100EB000E894BB2766277727CB0197F908950E940E
:100EC00072070C9425070E94170738F00E941E072E
:100ED00020F0952311F00C940E070C9414071124A4
:100EE0000C9459070E94360770F3959FC1F3950F34
:100EF00050E0551F629FF001729FBB27F00DB11D9E
:100F0000639FAA27F00DB11DAA1F649F6627B00D2D
:100F1000A11D661F829F2227B00DA11D621F739F16
:100F2000B00DA11D621F839FA00D611D221F749F24
:100F30003327A00D611D231F849F600D211D822F6B
:100F4000762F6A2F11249F5750409AF0F1F0882392
:100F50004AF0EE0FFF1FBB1F661F771F881F9150BF
:100F60005040A9F79E3F510580F00C940E070C9459
:100F700059075F3FE4F3983ED4F3869577956795DC
:100F8000B795F795E7959F5FC1F7FE2B880F911DE9
:100F90009695879597F9089597FB072E16F4009478
:100FA00007D077FD09D00E94F50707FC05D03EF475
:100FB000909581959F4F0895709561957F4F089505
:100FC000EE0FFF1F0590F491E02D0994A29FB00150
:100FD000B39FC001A39F700D811D1124911DB29F6D
:100FE000700D811D1124911D0895AA1BBB1B51E199
:100FF00007C0AA1FBB1FA617B70710F0A61BB70B89
:10100000881F991F5A95A9F780959095BC01CD012D
:061010000895F894FFCFE3
:1010160001010102020202020202010202020202AE
:1010260002020202010101010202010102020202A0
:00000001FF
