:100000000C942A000C9409030C9432030C945B03A7
:100010000C9499040C9470040C9449040C94FB0304
:100020000C9422040C94D4030C94AD030C9484031C
:100030000C9447000C9447000C9447000C94510515
:100040000C9447000C9447000C9447000C94470014
:100050000C94470011241FBECFE5D8E0DEBFCDBF12
:1000600010E0A0E6B0E0E6E1FBE002C005900D92F2
:10007000A238B107D9F720E0A2E8B0E001C01D9294
:10008000AA39B207E1F70E9462010C9489050C9429
:100090000000CF93C82F84FB662760F984E00E949C
:1000A0008402C5FB662760F985E00E948402C6FBD6
:1000B000662760F986E00E9484026C2F661F66271F
:1000C000661F87E00E94840260E088E00E9484024C
:1000D00060E089E00E94840261E08AE00E9484027C
:1000E0008FEC97E00197F1F700C0000060E08AE034
:1000F0000E9484026C2F617084E00E948402C1FB24
:10010000662760F985E00E948402C2FB662760F9D9
:1001100086E00E948402C3FB662760F987E00E94A4
:10012000840260E088E00E94840260E089E00E942E
:10013000840261E08AE00E9484028FEC97E00197DC
:10014000F1F700C0000060E08AE00E9484028FE0C6
:1001500097E20197F1F700C00000CF9108958FE377
:100160009CE90197F1F700C0000082E00E9449007D
:100170008FEC97E00197F1F700C0000088E20E9441
:1001800049008FEC97E00197F1F700C000008CE088
:100190000E9449008FEC97E00197F1F700C0000042
:1001A00081E00E9449008FE99FE00197F1F700C0CC
:1001B000000086E00E9449008FEC97E00197F1F77C
:1001C00000C0000080E80E9449000895CF93C82F26
:1001D00084FB662760F984E00E948402C5FB6627E1
:1001E00060F985E00E948402C6FB662760F986E01C
:1001F0000E9484026C2F661F6627661F87E00E949C
:10020000840261E088E00E94840260E089E00E944C
:10021000840261E08AE00E9484028FEC97E00197FB
:10022000F1F700C0000060E08AE00E9484026C2FB9
:10023000617084E00E948402C1FB662760F985E05A
:100240000E948402C2FB662760F986E00E94840255
:10025000C3FB662760F987E00E94840261E088E0C2
:100260000E94840260E089E00E94840261E08AE0EA
:100270000E9484028FEC97E00197F1F700C0000024
:1002800060E08AE00E948402CF910895882329F0DB
:10029000813031F080E090E005C080E890E002C05D
:1002A00080EC90E0603110F4860F911D0E944900AF
:1002B00008950E94E6008FEC97E00197F1F700C0E7
:1002C00000000895CF93DF9300D000D0CDB7DEB704
:1002D0000E9474020E94AF0020E040E060E083E0F2
:1002E0000E94C00481E69CE69A83898389E690E0B7
:1002F0009C838B83CE0101960E94420510E008C0CA
:1003000060E080E00E944601812F0E9459011F5F3A
:100310001930B0F3F3CF982F9695969596958770F0
:10032000613031F008F454C0623009F4A1C008957E
:100330009130C1F028F0923039F19330B9F108953D
:100340004AB321E030E0B90102C0660F771F8A95F9
:10035000E2F7CB01962F909594239ABB9BB3892B00
:100360008BBB089547B321E030E0B90102C0660FAE
:10037000771F8A95E2F7CB01962F9095942397BB30
:1003800098B3892B88BB089544B321E030E0B901CC
:1003900002C0660F771F8A95E2F7CB01962F9095E2
:1003A000942394BB95B3892B85BB089541B321E079
:1003B00030E0B90102C0660F771F8A95E2F7CB01E2
:1003C000962F9095942391BB92B3892B82BB08956D
:1003D0009130C1F028F0923039F19330B9F108959D
:1003E0004AB321E030E0B90102C0660F771F8A9559
:1003F000E2F7CB018095942F98239ABB9BB3892376
:100400008BBB089547B321E030E0B90102C0660F0D
:10041000771F8A95E2F7CB018095942F982397BB9D
:1004200098B3892388BB089544B321E030E0B90133
:1004300002C0660F771F8A95E2F7CB018095942F53
:10044000982394BB95B3892385BB089541B321E0DC
:1004500030E0B90102C0660F771F8A95E2F7CB0141
:100460008095942F982391BB92B3892382BB0895E2
:10047000913099F028F09230E9F0933041F10895ED
:100480004AB321E030E0B90102C0660F771F8A95B8
:10049000E2F7CB01842B8ABB089547B321E030E01B
:1004A000B90102C0660F771F8A95E2F7CB01842B52
:1004B00087BB089544B321E030E0B90102C0660F64
:1004C000771F8A95E2F7CB01842B84BB089541B353
:1004D00021E030E0B90102C0660F771F8A95E2F78C
:1004E000CB01842B81BB0895CF93C0E009C0EC2FD2
:1004F000F0E0EF59FF4F60818C2F0E948B01CF5F9E
:10050000C032A8F3CF910895982F96959695969519
:1005100087706130E1F5913099F028F09230E9F080
:10052000933041F108954BB321E030E0B90102C0AE
:10053000660F771F8A95E2F7CB01842B8BBB08955A
:1005400048B321E030E0B90102C0660F771F8A95F9
:10055000E2F7CB01842B88BB089545B321E030E05E
:10056000B90102C0660F771F8A95E2F7CB01842B91
:1005700085BB089542B321E030E0B90102C0660FA7
:10058000771F8A95E2F7CB01842B82BB0895611116
:100590003FC09130A1F028F09230F9F0933059F13A
:1005A00008954BB321E030E0B90102C0660F771F18
:1005B0008A95E2F7CB01809584238BBB089548B3DD
:1005C00021E030E0B90102C0660F771F8A95E2F79B
:1005D000CB018095842388BB089545B321E030E0AA
:1005E000B90102C0660F771F8A95E2F7CB018095AB
:1005F000842385BB089542B321E030E0B90102C0F5
:10060000660F771F8A95E2F7CB018095842382BB22
:1006100008951F920F920FB60F9211242F933F93BC
:100620004F935F936F937F938F939F93AF93BF93FA
:10063000EF93FF93E0918600F0918700309709F0E7
:100640000995FF91EF91BF91AF919F918F917F910C
:100650006F915F914F913F912F910F900FBE0F902F
:100660001F9018951F920F920FB60F9211242F937F
:100670003F934F935F936F937F938F939F93AF932A
:10068000BF93EF93FF93E0918400F0918500309742
:1006900009F00995FF91EF91BF91AF919F918F91D3
:1006A0007F916F915F914F913F912F910F900FBE6E
:1006B0000F901F9018951F920F920FB60F92112452
:1006C0002F933F934F935F936F937F938F939F935A
:1006D000AF93BF93EF93FF93E0918200F09183007B
:1006E000309709F00995FF91EF91BF91AF919F91DC
:1006F0008F917F916F915F914F913F912F910F90CB
:100700000FBE0F901F9018951F920F920FB60F9269
:1007100011242F933F934F935F936F937F938F9306
:100720009F93AF93BF93EF93FF93E0918A00F09173
:100730008B00309709F00995FF91EF91BF91AF9130
:100740009F918F917F916F915F914F913F912F91E9
:100750000F900FBE0F901F9018951F920F920FB61B
:100760000F9211242F933F934F935F936F937F9337
:100770008F939F93AF93BF93EF93FF93E091880084
:10078000F09189000995FF91EF91BF91AF919F91F1
:100790008F917F916F915F914F913F912F910F902A
:1007A0000FBE0F901F9018951F920F920FB60F92C9
:1007B00011242F933F934F935F936F937F938F9366
:1007C0009F93AF93BF93EF93FF93E0919200F091CB
:1007D00093000995FF91EF91BF91AF919F918F91F8
:1007E0007F916F915F914F913F912F910F900FBE2D
:1007F0000F901F9018951F920F920FB60F92112411
:100800002F933F934F935F936F937F938F939F9318
:10081000AF93BF93EF93FF93E0919000F09191001D
:100820000995FF91EF91BF91AF919F918F917F912A
:100830006F915F914F913F912F910F900FBE0F904D
:100840001F9018951F920F920FB60F9211242F939D
:100850003F934F935F936F937F938F939F93AF9348
:10086000BF93EF93FF93E0918E00F0918F00099575
:10087000FF91EF91BF91AF919F918F917F916F9178
:100880005F914F913F912F910F900FBE0F901F904E
:1008900018951F920F920FB60F9211242F933F932A
:1008A0004F935F936F937F938F939F93AF93BF9378
:1008B000EF93FF93E0918C00F0918D000995FF91EB
:1008C000EF91BF91AF919F918F917F916F915F91C8
:1008D0004F913F912F910F900FBE0F901F90189541
:1008E0001F920F920FB60F9211242F933F934F93A5
:1008F0005F936F937F938F939F93AF93BF93EF9388
:10090000FF93E0919600F0919700309709F00995D8
:10091000FF91EF91BF91AF919F918F917F916F91D7
:100920005F914F913F912F910F900FBE0F901F90AD
:1009300018951F920F920FB60F9211242F933F9389
:100940004F935F936F937F938F939F93AF93BF93D7
:10095000EF93FF93E0919400F09195000995FF913A
:10096000EF91BF91AF919F918F917F916F915F9127
:100970004F913F912F910F900FBE0F901F901895A0
:100980008230F9F028F4882341F0813081F036C0BC
:10099000833009F1843049F131C080B58D7F80BD4D
:1009A00080B58B7F80BD8AB18B7F8AB927C080B527
:1009B000826080BD80B58B7F80BD8AB18B7F8AB914
:1009C0001DC080B58D7F80BD80B5846080BD8AB13B
:1009D0008B7F8AB913C080B5826080BD80B584608A
:1009E00080BD8AB18B7F8AB909C080B5826080BD25
:1009F00080B5846080BD8AB184608AB9662319F0AD
:100A0000613029F007C080B5877F80BD03C080B505
:100A1000886080BD413059F018F0423079F014C040
:100A200080B58F7E80BD80B58F7D80BD0DC080B5C7
:100A30008F7E80BD80B5806280BD06C080B580613C
:100A400080BD80B5806280BD222319F0213041F045
:100A50000AC080B58F7B80BD8BB18D7F8BB903C001
:100A600080B5806480BD83E389B98AB180618AB929
:100A70008AB188608AB908958CB908958AB1806472
:100A80008AB90895CF93DF93EC01909399008093F6
:100A900098000E943E0588810E943C05DF91CF911D
:100AA00008951F920F920FB60F9211242F933F9328
:100AB0004F935F936F937F938F939F93AF93BF9366
:100AC000EF93FF9380916000E0919800F09199007E
:100AD000E80FF11D8081882341F00E943C05809140
:100AE00060008F5F8093600003C081E080936000AE
:100AF000FF91EF91BF91AF919F918F917F916F91F6
:100B00005F914F913F912F910F900FBE0F901F90CB
:060B10001895F894FFCFD8
:100B160001010101020202020202020202020202B3
:100B260002020202020101010101020101020201A7
:020B36000200BB
:00000001FF
