S01200004156525F4472697665722E737265635E
S11300000C942A000C9419030C9442030C946B0373
S11300100C94A9040C9480040C9459040C940B04BF
S11300200C9432040C94E4030C94BD030C949403D8
S11300300C9447000C9447000C9447000C94470020
S11300400C9447000C9447000C9447000C94470010
S11300500C94470011241FBECFE5D8E0DEBFCDBF0E
S113006010E0A0E6B0E0ECEAFAE002C005900D92E0
S1130070AA38B107D9F720E0AAE8B0E001C01D9280
S1130080A03AB207E1F70E947B010C9454050C944A
S11300900000CF93C82F84FB662760F984E00E9498
S11300A09402C5FB662760F985E00E949402C6FBB2
S11300B0662760F986E00E9494026C2F661F66270B
S11300C0661F87E00E94940260E088E00E94940228
S11300D060E089E00E94940261E08AE00E94940258
S11300E08FEC97E00197F1F700C0000060E08AE030
S11300F00E9494026C2F617084E00E949402C1FB00
S1130100662760F985E00E949402C2FB662760F9C5
S113011086E00E949402C3FB662760F987E00E9490
S1130120940260E088E00E94940260E089E00E940A
S1130130940261E08AE00E9494028FEC97E00197B8
S1130140F1F700C0000060E08AE00E9494028FE0B2
S113015097E20197F1F700C00000CF9108958FE373
S11301609CE90197F1F700C0000082E00E94490079
S11301708FEC97E00197F1F700C0000088E20E943D
S113018049008FEC97E00197F1F700C000008CE084
S11301900E9449008FEC97E00197F1F700C000003E
S11301A081E00E9449008FE99FE00197F1F700C0C8
S11301B0000086E00E9449008FEC97E00197F1F778
S11301C000C0000080E80E9449000895CF93C82F22
S11301D084FB662760F984E00E949402C5FB6627CD
S11301E060F985E00E949402C6FB662760F986E008
S11301F00E9494026C2F661F6627661F87E00E9488
S1130200940261E088E00E94940260E089E00E9428
S1130210940261E08AE00E9494028FEC97E00197D7
S1130220F1F700C0000060E08AE00E9494026C2FA5
S1130230617084E00E949402C1FB662760F985E046
S11302400E949402C2FB662760F986E00E94940231
S1130250C3FB662760F987E00E94940261E088E0AE
S11302600E94940260E089E00E94940261E08AE0C6
S11302700E9494028FEC97E00197F1F700C0000010
S113028060E08AE00E949402CF910895882329F0C7
S1130290813031F080E090E005C080E890E002C059
S11302A080EC90E0603110F4860F911D0E944900AB
S11302B008950E94E6008FEC97E00197F1F700C0E3
S11302C0000008950F931F93CF938C01C0E009C0E1
S11302D00E94E6008FEC97E00197F1F700C0000060
S11302E0CF5FF801EC0FF11D80818111F1CFCF9127
S11302F01F910F9108950E9484020E94AF0060E054
S113030080E00E94460180E690E00E94620120E0C5
S113031040E060E083E00E94D00486E60E944C0541
S11303200E945005C82F61E081E00E9446018C2F95
S11303300E945901F5CF982F9695969596958770BA
S1130340613031F008F454C0623009F4A1C008955A
S11303509130C1F028F0923039F19330B9F1089519
S11303604AB321E030E0B90102C0660F771F8A95D5
S1130370E2F7CB01962F909594239ABB9BB3892BDC
S11303808BBB089547B321E030E0B90102C0660F8A
S1130390771F8A95E2F7CB01962F9095942397BB0C
S11303A098B3892B88BB089544B321E030E0B901A8
S11303B002C0660F771F8A95E2F7CB01962F9095BE
S11303C0942394BB95B3892B85BB089541B321E055
S11303D030E0B90102C0660F771F8A95E2F7CB01BE
S11303E0962F9095942391BB92B3892B82BB089549
S11303F09130C1F028F0923039F19330B9F1089579
S11304004AB321E030E0B90102C0660F771F8A9534
S1130410E2F7CB018095942F98239ABB9BB3892351
S11304208BBB089547B321E030E0B90102C0660FE9
S1130430771F8A95E2F7CB018095942F982397BB79
S113044098B3892388BB089544B321E030E0B9010F
S113045002C0660F771F8A95E2F7CB018095942F2F
S1130460982394BB95B3892385BB089541B321E0B8
S113047030E0B90102C0660F771F8A95E2F7CB011D
S11304808095942F982391BB92B3892382BB0895BE
S1130490913099F028F09230E9F0933041F10895C9
S11304A04AB321E030E0B90102C0660F771F8A9594
S11304B0E2F7CB01842B8ABB089547B321E030E0F7
S11304C0B90102C0660F771F8A95E2F7CB01842B2E
S11304D087BB089544B321E030E0B90102C0660F40
S11304E0771F8A95E2F7CB01842B84BB089541B32F
S11304F021E030E0B90102C0660F771F8A95E2F768
S1130500CB01842B81BB0895CF93C0E009C0EC2FAD
S1130510F0E0E659FF4F60818C2F0E949B01CF5F72
S1130520C032A8F3CF910895982F969596959695F5
S113053087706130E1F5913099F028F09230E9F05C
S1130540933041F108954BB321E030E0B90102C08A
S1130550660F771F8A95E2F7CB01842B8BBB089536
S113056048B321E030E0B90102C0660F771F8A95D5
S1130570E2F7CB01842B88BB089545B321E030E03A
S1130580B90102C0660F771F8A95E2F7CB01842B6D
S113059085BB089542B321E030E0B90102C0660F83
S11305A0771F8A95E2F7CB01842B82BB08956111F2
S11305B03FC09130A1F028F09230F9F0933059F116
S11305C008954BB321E030E0B90102C0660F771FF4
S11305D08A95E2F7CB01809584238BBB089548B3B9
S11305E021E030E0B90102C0660F771F8A95E2F777
S11305F0CB018095842388BB089545B321E030E086
S1130600B90102C0660F771F8A95E2F7CB01809586
S1130610842385BB089542B321E030E0B90102C0D0
S1130620660F771F8A95E2F7CB018095842382BBFE
S113063008951F920F920FB60F9211242F933F9398
S11306404F935F936F937F938F939F93AF93BF93D6
S1130650EF93FF93E0918E00F0918F00309709F0B3
S11306600995FF91EF91BF91AF919F918F917F91E8
S11306706F915F914F913F912F910F900FBE0F900B
S11306801F9018951F920F920FB60F9211242F935B
S11306903F934F935F936F937F938F939F93AF9306
S11306A0BF93EF93FF93E0918C00F0918D0030970E
S11306B009F00995FF91EF91BF91AF919F918F91AF
S11306C07F916F915F914F913F912F910F900FBE4A
S11306D00F901F9018951F920F920FB60F9211242E
S11306E02F933F934F935F936F937F938F939F9336
S11306F0AF93BF93EF93FF93E0918A00F0918B0047
S1130700309709F00995FF91EF91BF91AF919F91B7
S11307108F917F916F915F914F913F912F910F90A6
S11307200FBE0F901F9018951F920F920FB60F9245
S113073011242F933F934F935F936F937F938F93E2
S11307409F93AF93BF93EF93FF93E0919200F09147
S11307509300309709F00995FF91EF91BF91AF9104
S11307609F918F917F916F915F914F913F912F91C5
S11307700F900FBE0F901F9018951F920F920FB6F7
S11307800F9211242F933F934F935F936F937F9313
S11307908F939F93AF93BF93EF93FF93E091900058
S11307A0F09191000995FF91EF91BF91AF919F91C5
S11307B08F917F916F915F914F913F912F910F9006
S11307C00FBE0F901F9018951F920F920FB60F92A5
S11307D011242F933F934F935F936F937F938F9342
S11307E09F93AF93BF93EF93FF93E0919A00F0919F
S11307F09B000995FF91EF91BF91AF919F918F91CC
S11308007F916F915F914F913F912F910F900FBE08
S11308100F901F9018951F920F920FB60F921124EC
S11308202F933F934F935F936F937F938F939F93F4
S1130830AF93BF93EF93FF93E0919800F0919900E9
S11308400995FF91EF91BF91AF919F918F917F9106
S11308506F915F914F913F912F910F900FBE0F9029
S11308601F9018951F920F920FB60F9211242F9379
S11308703F934F935F936F937F938F939F93AF9324
S1130880BF93EF93FF93E0919600F0919700099541
S1130890FF91EF91BF91AF919F918F917F916F9154
S11308A05F914F913F912F910F900FBE0F901F902A
S11308B018951F920F920FB60F9211242F933F9306
S11308C04F935F936F937F938F939F93AF93BF9354
S11308D0EF93FF93E0919400F09195000995FF91B7
S11308E0EF91BF91AF919F918F917F916F915F91A4
S11308F04F913F912F910F900FBE0F901F9018951D
S11309001F920F920FB60F9211242F933F934F9380
S11309105F936F937F938F939F93AF93BF93EF9363
S1130920FF93E0919E00F0919F00309709F00995A4
S1130930FF91EF91BF91AF919F918F917F916F91B3
S11309405F914F913F912F910F900FBE0F901F9089
S113095018951F920F920FB60F9211242F933F9365
S11309604F935F936F937F938F939F93AF93BF93B3
S1130970EF93FF93E0919C00F0919D000995FF9106
S1130980EF91BF91AF919F918F917F916F915F9103
S11309904F913F912F910F900FBE0F901F9018957C
S11309A08230F9F028F4882341F0813081F036C098
S11309B0833009F1843049F131C080B58D7F80BD29
S11309C080B58B7F80BD8AB18B7F8AB927C080B503
S11309D0826080BD80B58B7F80BD8AB18B7F8AB9F0
S11309E01DC080B58D7F80BD80B5846080BD8AB117
S11309F08B7F8AB913C080B5826080BD80B5846066
S1130A0080BD8AB18B7F8AB909C080B5826080BD00
S1130A1080B5846080BD8AB184608AB9662319F088
S1130A20613029F007C080B5877F80BD03C080B5E1
S1130A30886080BD413059F018F0423079F014C01C
S1130A4080B58F7E80BD80B58F7D80BD0DC080B5A3
S1130A508F7E80BD80B5806280BD06C080B5806118
S1130A6080BD80B5806280BD222319F0213041F021
S1130A700AC080B58F7B80BD8BB18D7F8BB903C0DD
S1130A8080B5806480BD83E389B98AB180618AB905
S1130A908AB188608AB908955D9BFECF8CB90895A8
S10F0AA05F9BFECF8CB10895F894FFCF4B
S1130AAC5541525420546573740001010102020231
S1130ABC0202020202020202020202020202010108
S10D0ACC010100020101020201020F
S9030000FC
