:100000000C942A000C942F030C9458030C94810335
:100010000C94BF040C9496040C946F040C9421046B
:100020000C9448040C94FA030C94D3030C94AA0384
:100030000C9447000C9447000C9447000C94470024
:100040000C9447000C9447000C9447000C94470014
:100050000C94470011241FBECFE5D8E0DEBFCDBF12
:1000600010E0A0E6B0E0E4E9FBE002C005900D92EC
:10007000AE3EB107D9F721E0AEEEB0E001C01D926F
:10008000A430B207E1F70E9472010C94C8050C94E9
:100090000000CF93C82F84FB662760F984E00E949C
:1000A000AA02C5FB662760F985E00E94AA02C6FB8A
:1000B000662760F986E00E94AA026C2F661F6627F9
:1000C000661F87E00E94AA0260E088E00E94AA0200
:1000D00060E089E00E94AA0261E08AE00E94AA0230
:1000E0008FEC97E00197F1F700C0000060E08AE034
:1000F0000E94AA026C2F617084E00E94AA02C1FBD8
:10010000662760F985E00E94AA02C2FB662760F9B3
:1001100086E00E94AA02C3FB662760F987E00E947E
:10012000AA0260E088E00E94AA0260E089E00E94E2
:10013000AA0261E08AE00E94AA028FEC97E0019790
:10014000F1F700C0000060E08AE00E94AA028FE0A0
:1001500097E20197F1F700C00000CF9108958FE377
:100160009CE90197F1F700C0000082E00E9449007D
:100170008FEC97E00197F1F700C0000088E20E9441
:1001800049008FEC97E00197F1F700C000008CE088
:100190000E9449008FEC97E00197F1F700C0000042
:1001A00081E00E9449008FE99FE00197F1F700C0CC
:1001B000000086E00E9449008FEC97E00197F1F77C
:1001C00000C0000080E80E9449000895CF93C82F26
:1001D00084FB662760F984E00E94AA02C5FB6627BB
:1001E00060F985E00E94AA02C6FB662760F986E0F6
:1001F0000E94AA026C2F661F6627661F87E00E9476
:10020000AA0261E088E00E94AA0260E089E00E9400
:10021000AA0261E08AE00E94AA028FEC97E00197AF
:10022000F1F700C0000060E08AE00E94AA026C2F93
:10023000617084E00E94AA02C1FB662760F985E034
:100240000E94AA02C2FB662760F986E00E94AA0209
:10025000C3FB662760F987E00E94AA0261E088E09C
:100260000E94AA0260E089E00E94AA0261E08AE09E
:100270000E94AA028FEC97E00197F1F700C00000FE
:1002800060E08AE00E94AA02CF910895882329F0B5
:10029000813031F080E090E005C080E890E002C05D
:1002A00080EC90E0603110F4860F911D0E944900AF
:1002B00008950F931F93CF938C01C0E009C00E9453
:1002C000E6008FEC97E00197F1F700C00000CF5FE8
:1002D000F801EC0FF11D80818111F1CFCF911F91B9
:1002E0000F910895CF93DF93CDB7DEB7C85CD109E6
:1002F0000FB6F894DEBF0FBECDBF0E949A020E94D7
:10030000AF0060E080E00E94460184EC90E00E9433
:10031000590120E040E060E083E00E94E60480E1D3
:10032000E0E6F0E0DE01119601900D928A95E1F78A
:10033000FE01719684E5DF011D928A95E9F7CE01F1
:1003400001960E946A05CE018B599F4F0E948A0533
:1003500060E081E00E944601CE0101960E945901B1
:10036000F2CF982F9695969596958770613031F0DB
:1003700008F454C0623009F4A1C008959130C1F06E
:1003800028F0923039F19330B9F108954AB321E061
:1003900030E0B90102C0660F771F8A95E2F7CB0102
:1003A000962F909594239ABB9BB3892B8BBB089572
:1003B00047B321E030E0B90102C0660F771F8A958C
:1003C000E2F7CB01962F9095942397BB98B3892B96
:1003D00088BB089544B321E030E0B90102C0660F44
:1003E000771F8A95E2F7CB01962F9095942394BBC3
:1003F00095B3892B85BB089541B321E030E0B90165
:1004000002C0660F771F8A95E2F7CB01962F909571
:10041000942391BB92B3892B82BB08959130C1F094
:1004200028F0923039F19330B9F108954AB321E0C0
:1004300030E0B90102C0660F771F8A95E2F7CB0161
:100440008095942F98239ABB9BB389238BBB0895E7
:1004500047B321E030E0B90102C0660F771F8A95EB
:10046000E2F7CB018095942F982397BB98B389230B
:1004700088BB089544B321E030E0B90102C0660FA3
:10048000771F8A95E2F7CB018095942F982394BB30
:1004900095B3892385BB089541B321E030E0B901CC
:1004A00002C0660F771F8A95E2F7CB018095942FE3
:1004B000982391BB92B3892382BB0895913099F020
:1004C00028F09230E9F0933041F108954AB321E0E9
:1004D00030E0B90102C0660F771F8A95E2F7CB01C1
:1004E000842B8ABB089547B321E030E0B90102C0F4
:1004F000660F771F8A95E2F7CB01842B87BB08959F
:1005000044B321E030E0B90102C0660F771F8A953D
:10051000E2F7CB01842B84BB089541B321E030E0A6
:10052000B90102C0660F771F8A95E2F7CB01842BD1
:1005300081BB0895CF93C0E009C0EC2FF0E0E253F7
:10054000FF4F60818C2F0E94B101CF5FC032A8F3B2
:10055000CF910895982F96959695969587706130CE
:10056000E1F5913099F028F09230E9F0933041F1C3
:1005700008954BB321E030E0B90102C0660F771F48
:100580008A95E2F7CB01842B8BBB089548B321E019
:1005900030E0B90102C0660F771F8A95E2F7CB0100
:1005A000842B88BB089545B321E030E0B90102C037
:1005B000660F771F8A95E2F7CB01842B85BB0895E0
:1005C00042B321E030E0B90102C0660F771F8A957F
:1005D000E2F7CB01842B82BB089561113FC09130BB
:1005E000A1F028F09230F9F0933059F108954BB30F
:1005F00021E030E0B90102C0660F771F8A95E2F76B
:10060000CB01809584238BBB089548B321E030E073
:10061000B90102C0660F771F8A95E2F7CB0180957A
:10062000842388BB089545B321E030E0B90102C0BE
:10063000660F771F8A95E2F7CB018095842385BBEF
:10064000089542B321E030E0B90102C0660F771F80
:100650008A95E2F7CB018095842382BB08951F928F
:100660000F920FB60F9211242F933F934F935F93E6
:100670006F937F938F939F93AF93BF93EF93FF936A
:10068000E091F200F091F300309709F00995FF91A5
:10069000EF91BF91AF919F918F917F916F915F91FA
:1006A0004F913F912F910F900FBE0F901F90189573
:1006B0001F920F920FB60F9211242F933F934F93D7
:1006C0005F936F937F938F939F93AF93BF93EF93BA
:1006D000FF93E091F000F091F100309709F0099557
:1006E000FF91EF91BF91AF919F918F917F916F910A
:1006F0005F914F913F912F910F900FBE0F901F90E0
:1007000018951F920F920FB60F9211242F933F93BB
:100710004F935F936F937F938F939F93AF93BF9309
:10072000EF93FF93E091EE00F091EF00309709F026
:100730000995FF91EF91BF91AF919F918F917F911B
:100740006F915F914F913F912F910F900FBE0F903E
:100750001F9018951F920F920FB60F9211242F938E
:100760003F934F935F936F937F938F939F93AF9339
:10077000BF93EF93FF93E091F600F091F70030976D
:1007800009F00995FF91EF91BF91AF919F918F91E2
:100790007F916F915F914F913F912F910F900FBE7D
:1007A0000F901F9018951F920F920FB60F92112461
:1007B0002F933F934F935F936F937F938F939F9369
:1007C000AF93BF93EF93FF93E091F400F091F500A6
:1007D0000995FF91EF91BF91AF919F918F917F917B
:1007E0006F915F914F913F912F910F900FBE0F909E
:1007F0001F9018951F920F920FB60F9211242F93EE
:100800003F934F935F936F937F938F939F93AF9398
:10081000BF93EF93FF93E091FE00F091FF000995E5
:10082000FF91EF91BF91AF919F918F917F916F91C8
:100830005F914F913F912F910F900FBE0F901F909E
:1008400018951F920F920FB60F9211242F933F937A
:100850004F935F936F937F938F939F93AF93BF93C8
:10086000EF93FF93E091FC00F091FD000995FF915B
:10087000EF91BF91AF919F918F917F916F915F9118
:100880004F913F912F910F900FBE0F901F90189591
:100890001F920F920FB60F9211242F933F934F93F5
:1008A0005F936F937F938F939F93AF93BF93EF93D8
:1008B000FF93E091FA00F091FB000995FF91EF9111
:1008C000BF91AF919F918F917F916F915F914F9168
:1008D0003F912F910F900FBE0F901F9018951F9270
:1008E0000F920FB60F9211242F933F934F935F9364
:1008F0006F937F938F939F93AF93BF93EF93FF93E8
:10090000E091F800F091F9000995FF91EF91BF9106
:10091000AF919F918F917F916F915F914F913F9197
:100920002F910F900FBE0F901F9018951F920F924E
:100930000FB60F9211242F933F934F935F936F93B2
:100940007F938F939F93AF93BF93EF93FF93E09128
:100950000201F0910301309709F00995FF91EF91A1
:10096000BF91AF919F918F917F916F915F914F91C7
:100970003F912F910F900FBE0F901F9018951F92CF
:100980000F920FB60F9211242F933F934F935F93C3
:100990006F937F938F939F93AF93BF93EF93FF9347
:1009A000E0910001F09101010995FF91EF91BF9154
:1009B000AF919F918F917F916F915F914F913F91F7
:1009C0002F910F900FBE0F901F9018958230F9F065
:1009D00028F4882341F0813081F036C0833009F15A
:1009E000843049F131C080B58D7F80BD80B58B7F6B
:1009F00080BD8AB18B7F8AB927C080B5826080BDF7
:100A000080B58B7F80BD8AB18B7F8AB91DC080B5D0
:100A10008D7F80BD80B5846080BD8AB18B7F8AB9AF
:100A200013C080B5826080BD80B5846080BD8AB10E
:100A30008B7F8AB909C080B5826080BD80B5846033
:100A400080BD8AB184608AB9662319F0613029F0CB
:100A500007C080B5877F80BD03C080B5886080BD3A
:100A6000413059F018F0423079F014C080B58F7ED3
:100A700080BD80B58F7D80BD0DC080B58F7E80BD6F
:100A800080B5806280BD06C080B5806180BD80B5C4
:100A9000806280BD222319F0213041F00AC080B568
:100AA0008F7B80BD8BB18D7F8BB903C080B5806497
:100AB00080BD83E389B98AB180618AB98AB18860CF
:100AC0008AB908955D9BFECF8CB908955F9BFECFD8
:100AD0008CB108950F931F93CF938C01C0E003C096
:100AE0000E946205CF5FEC2FF0E0EE0FFF1FEE0FCC
:100AF000FF1FE00FF11F80819181A281B3810097D8
:100B0000A105B10569F783E20E946205CF911F91AB
:100B10000F910895EF92FF921F93CF93DF937C0183
:100B20000E94660590E0A0E0B0E0F7018083918329
:100B3000A283B38310E012C01F5FC12FD0E0CC0F9F
:100B4000DD1FCC0FDD1FCE0DDF1D0E94660590E07E
:100B5000A0E0B0E088839983AA83BB83E12FF0E013
:100B6000EE0FFF1FEE0FFF1FEE0DFF1D8081918125
:100B7000A281B3818397A105B105F1F6108211829C
:100B800012821382DF91CF911F91FF90EF90089511
:040B9000F894FFCF07
:100B9400416C69205265646120456C73616964002D
:100BA4000000000000000000000000000000000041
:100BB4000000000000000000000000000000000031
:100BC4000000000000000000000000000000000021
:100BD4000000000000000000000000000000000011
:100BE4000000000000000000000000000000000001
:100BF40000000000554152542054657374000101F3
:100C040001020202020202020202020202020202C1
:0E0C14000202010101010002010102020102BF
:00000001FF
