S01200004156525F4472697665722E737265635E
S11300000C942A000C94A6030C94CF030C94470080
S11300100C9447000C9447000C9447000C94470040
S11300200C9447000C9447000C9447000C94470030
S11300300C9447000C9447000C9447000C94470020
S11300400C9447000C9447000C9447000C94470010
S11300500C94470011241FBECFE5D8E0DEBFCDBF0E
S113006010E0A0E6B0E0E4EFF7E002C005900D92E6
S1130070A63DB107D9F720E0A6EDB0E001C01D927E
S1130080AA3DB207E1F70E949D010C94F8030C9479
S11300900000CF93C82F84FB662760F984E00E9498
S11300A02103C5FB662760F985E00E942103C6FB96
S11300B0662760F986E00E9421036C2F661F66277D
S11300C0661F87E00E94210360E088E00E9421030C
S11300D060E089E00E94210361E08AE00E9421033C
S11300E08FEC97E00197F1F700C0000060E08AE030
S11300F00E9421036C2F617084E00E942103C1FBE4
S1130100662760F985E00E942103C2FB662760F937
S113011086E00E942103C3FB662760F987E00E9402
S1130120210360E088E00E94210360E089E00E94EE
S1130130210361E08AE00E9421038FEC97E001979C
S1130140F1F700C0000060E08AE00E9421038FE024
S113015097E20197F1F700C00000CF9108958FE373
S11301609CE90197F1F700C0000082E00E94490079
S11301708FEC97E00197F1F700C0000088E20E943D
S113018049008FEC97E00197F1F700C000008CE084
S11301900E9449008FEC97E00197F1F700C000003E
S11301A081E00E9449008FE99FE00197F1F700C0C8
S11301B0000086E00E9449008FEC97E00197F1F778
S11301C000C0000080E80E9449000895CF93C82F22
S11301D084FB662760F984E00E942103C5FB66273F
S11301E060F985E00E942103C6FB662760F986E07A
S11301F00E9421036C2F661F6627661F87E00E94FA
S1130200210361E088E00E94210360E089E00E940C
S1130210210361E08AE00E9421038FEC97E00197BB
S1130220F1F700C0000060E08AE00E9421036C2F17
S1130230617084E00E942103C1FB662760F985E0B8
S11302400E942103C2FB662760F986E00E94210315
S1130250C3FB662760F987E00E94210361E088E020
S11302600E94210360E089E00E94210361E08AE0AA
S11302700E9421038FEC97E00197F1F700C0000082
S113028060E08AE00E942103CF91089581E00E94FA
S113029049008FEC97E00197F1F700C00000089542
S11302A0882329F0813031F080E090E005C080E8B7
S11302B090E002C080EC90E0603110F4860F911D54
S11302C00E94490008950F931F93CF938C01C0E0BF
S11302D009C00E94E6008FEC97E00197F1F700C097
S11302E00000CF5FF801EC0FF11D80818111F1CF87
S11302F0CF911F910F9108950F931F93CF938C016A
S1130300862F90E00896880F880F880F0E94490076
S1130310C0E00DC0F801EC0FF11D80810E94E600E1
S11303208FEC97E00197F1F700C00000CF5FC83071
S113033088F3CF911F910F910895CF93DF9300D04D
S113034000D000D0CDB7DEB70E9411030E94AF00E9
S113035061E080E790E00E947C0162E088E690E042
S11303600E947C0163E080E690E00E947C0164E0EE
S113037088E790E00E947C0165E080EA90E00E94BA
S11303807C0166E088E990E00E947C0167E088E8EF
S113039090E00E947C0168E088EA90E00E947C0181
S11303A069E080E890E00E947C016AE080E990E0E6
S11303B00E947C0186E0E0EBF0E0DE011196019002
S11303C00D928A95E1F70E94460110E001C01F5F7B
S11303D0E1E0F0E0EC0FFD1FE10FF11D80818111E0
S11303E0F6CF1BC060E080E00E945001812F90E0B6
S11303F0019721E030E02C0F3D1F820F931F0E94D4
S113040063013FEF89E698E1315080409040E1F785
S113041000C000000E9446011150123018F710E08D
S113042014C0612F80E00E945001CE0101960E9409
S113043063012FEF39E688E1215030408040E1F735
S113044000C000000E9446011F5F103150F3BDCF71
S1130450982F9695969596958770613031F008F4AB
S113046054C0623009F4A1C008959130C1F028F05D
S1130470923039F19330B9F108954AB321E030E074
S1130480B90102C0660F771F8A95E2F7CB01962F58
S1130490909594239ABB9BB3892B8BBB089547B348
S11304A021E030E0B90102C0660F771F8A95E2F7B8
S11304B0CB01962F9095942397BB98B3892B88BB37
S11304C0089544B321E030E0B90102C0660F771FFC
S11304D08A95E2F7CB01962F9095942394BB95B31C
S11304E0892B85BB089541B321E030E0B90102C0F6
S11304F0660F771F8A95E2F7CB01962F9095942388
S113050091BB92B3892B82BB08959130C1F028F03E
S1130510923039F19330B9F108954AB321E030E0D3
S1130520B90102C0660F771F8A95E2F7CB01809567
S1130530942F98239ABB9BB389238BBB089547B30D
S113054021E030E0B90102C0660F771F8A95E2F717
S1130550CB018095942F982397BB98B3892388BBAC
S1130560089544B321E030E0B90102C0660F771F5B
S11305708A95E2F7CB018095942F982394BB95B389
S1130580892385BB089541B321E030E0B90102C05D
S1130590660F771F8A95E2F7CB018095942F9823F5
S11305A091BB92B3892382BB0895913099F028F0CE
S11305B09230E9F0933041F108954AB321E030E0FC
S11305C0B90102C0660F771F8A95E2F7CB01842B2D
S11305D08ABB089547B321E030E0B90102C0660F39
S11305E0771F8A95E2F7CB01842B87BB089544B328
S11305F021E030E0B90102C0660F771F8A95E2F767
S1130600CB01842B84BB089541B321E030E0B901D0
S113061002C0660F771F8A95E2F7CB01842B81BB5A
S11306200895CF93C0E009C0EC2FF0E0EA54FF4FE7
S113063060818C2F0E942802CF5FC032A8F3CF9133
S11306400895982F96959695969587706130E1F563
S1130650913099F028F09230E9F0933041F1089507
S11306604BB321E030E0B90102C0660F771F8A95D1
S1130670E2F7CB01842B8BBB089548B321E030E033
S1130680B90102C0660F771F8A95E2F7CB01842B6C
S113069088BB089545B321E030E0B90102C0660F7C
S11306A0771F8A95E2F7CB01842B85BB089542B36B
S11306B021E030E0B90102C0660F771F8A95E2F7A6
S11306C0CB01842B82BB089561113FC09130A1F00E
S11306D028F09230F9F0933059F108954BB321E0AA
S11306E030E0B90102C0660F771F8A95E2F7CB01AB
S11306F0809584238BBB089548B321E030E0B90191
S113070002C0660F771F8A95E2F7CB018095842398
S113071088BB089545B321E030E0B90102C0660FFB
S1130720771F8A95E2F7CB018095842385BB0895D2
S113073042B321E030E0B90102C0660F771F8A9509
S1130740E2F7CB018095842382BB08951F920F9218
S11307500FB60F9211242F933F934F935F936F9390
S11307607F938F939F93AF93BF93EF93FF93E09106
S1130770D800F091D900309709F00995FF91EF91D5
S1130780BF91AF919F918F917F916F915F914F91A5
S11307903F912F910F900FBE0F901F9018951F92AD
S11307A00F920FB60F9211242F933F934F935F93A1
S11307B06F937F938F939F93AF93BF93EF93FF9325
S11307C0E091D600F091D700309709F00995FF9198
S11307D0EF91BF91AF919F918F917F916F915F91B5
S11307E04F913F912F910F900FBE0F901F9018952E
S10707F0F894FFCFA7
S11307F40E1B111F1F1F1F1F0E1B1111111F1F1F63
S11308040E1B111111111F1F040E0A0A0A1F0004E2
S113081400000A001F110E000103071F1F07030134
S113082400000A15110A04000E1F1B1F1C1F1F0EB3
S11308340F1E1C18181C1E0F040A040E15040A0AA1
S113084441686D65640002020202020202020202AD
S11308540202020202020202020202020202000074
S109086400000000020286
S9030000FC
