S01200004156525F4472697665722E737265635E
S11300000C9439000C94ED040C9416050C943F05E3
S11300100C941E070C94F5060C94CE060C948006E2
S11300200C94A7060C9459060C9432060C940906F9
S11300300C9456000C9456000C9456000C945600E4
S11300400C9456000C9456000C9456000C945600D4
S11300500C94560015031F03290333033D03470380
S113006051039605A005AA05B405BE05C805D20529
S1130070DC0511241FBECFE5D8E0DEBFCDBF10E004
S1130080A0E6B0E0E0EDF2E102C005900D92A239E5
S1130090B107D9F720E0A2E9B0E001C01D92A83A67
S11300A0B207E1F70E94E8020C9466090C94000080
S11300B078940E9458040E94570165E081E00E94F0
S11300C0ED0260E080E00E94EE0181E00E944507BD
S11300D0C82F082F10E060E080E00E94EE0180E667
S11300E090E00E9401026C2F70E080E090E00E949A
S11300F00A080E941A0260E081E00E94EE0188E68C
S113010090E00E9401020931110558F460E08AE090
S11301100E94C00060E070E080E291E40E941A0254
S1130120D4CFC8014997059758F460E082E30E9450
S1130130C00060E070E088E492E40E941A02C5CF37
S1130140C8014E97059758F460E086E40E94C00009
S113015060E070E08CE892E40E941A02B6CF035289
S113016011090530110508F0B0CF60E08AE50E945E
S1130170C00060E070E084EB92E40E941A02A5CF14
S1130180CF93DF93C82FD62F42E062E083E00E9432
S113019068058FEFC89F90011124369527953695F1
S11301A02795ABE7B4E10E9443099695879580951E
S11301B08CBFD11109C060E08BE00E94680461E04B
S11301C08FE00E9468040AC0D13041F460E08EE000
S11301D00E94680461E08FE00E946804DF91CF917F
S11301E00895CF93C82F84FB662760F984E00E94AA
S11301F06804C5FB662760F985E00E946804C6FBB5
S1130200662760F986E00E9468046C2F661F6627E3
S1130210661F87E00E94680460E088E00E9468042A
S113022060E089E00E94680461E08AE00E9468045A
S11302308FEC97E00197F1F700C0000060E08AE0DE
S11302400E9468046C2F617084E00E946804C1FB02
S1130250662760F985E00E946804C2FB662760F99E
S113026086E00E946804C3FB662760F987E00E9469
S1130270680460E088E00E94680460E089E00E940D
S1130280680461E08AE00E9468048FEC97E00197BB
S1130290F1F700C0000060E08AE00E9468048FE08B
S11302A097E20197F1F700C00000CF9108958FE322
S11302B09CE90197F1F700C0000082E00E94F10080
S11302C08FEC97E00197F1F700C0000088E20E94EC
S11302D0F1008FEC97E00197F1F700C000008CE08B
S11302E00E94F1008FEC97E00197F1F700C0000045
S11302F081E00E94F1008FE99FE00197F1F700C0CF
S1130300000086E00E94F1008FEC97E00197F1F77E
S113031000C0000080E80E94F1000895CF93C82F28
S113032084FB662760F984E00E946804C5FB6627A5
S113033060F985E00E946804C6FB662760F986E0E0
S11303400E9468046C2F661F6627661F87E00E9460
S1130350680461E088E00E94680460E089E00E942B
S1130360680461E08AE00E9468048FEC97E00197DA
S1130370F1F700C0000060E08AE00E9468046C2F7E
S1130380617084E00E946804C1FB662760F985E01F
S11303900E946804C2FB662760F986E00E94680434
S11303A0C3FB662760F987E00E94680461E088E087
S11303B00E94680460E089E00E94680461E08AE0C9
S11303C00E9468048FEC97E00197F1F700C00000E9
S11303D060E08AE00E946804CF910895882329F0A0
S11303E0813031F080E090E005C080E890E002C008
S11303F080EC90E0603110F4860F911D0E94F100B2
S113040008950F931F93CF938C01C0E009C00E94FD
S11304108E018FEC97E00197F1F700C00000CF5FE9
S1130420F801EC0FF11D80818111F1CFCF911F9163
S11304300F9108958F929F92AF92BF92EF92FF9285
S11304401F93CF93DF93CDB7DEB760970FB6F894C1
S1130450DEBF0FBECDBF4B015C0120E030E0A9013F
S11304600E94CF07811103C080E30E948E0120E027
S113047030E0A901C501B4010E94CF0788233CF4F0
S1130480B7FAB094B7F8B0948DE20E948E01C5011A
S1130490B4010E94D4077B01072E000C880B990B32
S11304A00E940C089B01AC01C501B4010E946207C3
S11304B04B015C0110E010C0C7016AE070E00E94CB
S11304C02909E1E0F0E0EC0FFD1FE10FF11D805D73
S11304D08083E62EF72E1F5FE114F10469F70DC047
S11304E0E12FF0E0319721E030E02C0F3D1FE20FC7
S11304F0F31F80810E948E0111501111F1CF20E071
S113050030E0A901C501B4010E94CF07882309F492
S11305104FC08EE20E948E0120E030E04AE754E4AE
S1130520C501B4010E94BC080E94DB07AB012DC0C9
S11305309A01ADECBCEC0E9443099695879596957B
S11305408795969587959C01220F331F880F991FD5
S1130550880F991F880F991F820F931F9A01281BD8
S1130560390BC901E1E0F0E0EC0FFD1FE10FF11DD3
S1130570805D80839A010E944309AC01569547959A
S113058056954795569547951F5F4115510581F638
S11305900DC0E12FF0E0319781E090E08C0F9D1FBA
S11305A0E80FF91F80810E948E0111501111F1CFC3
S11305B060960FB6F894DEBF0FBECDBFDF91CF912A
S11305C01F91FF90EF90BF90AF909F908F900895F0
S11305D00E94580080E090E00895813059F018F0AE
S11305E0823079F014C087B18F7B87B987B18F7758
S11305F087B90DC087B1806487B987B18F7787B910
S113060006C087B1806487B987B1806887B986B12D
S1130610887F86B9862F90E08730910508F04AC01C
S1130620FC01E65DFF4F0C943D0986B18E7F86B9CF
S113063086B18D7F86B986B18B7F86B93BC086B182
S11306408E7F86B986B1826086B986B18B7F86B982
S113065031C086B1816086B986B1826086B986B1BF
S11306608B7F86B927C086B18E7F86B986B18D7F90
S113067086B986B1846086B91DC086B1816086B9A9
S113068086B18D7F86B986B1846086B913C086B180
S11306908E7F86B986B1826086B986B1846086B958
S11306A009C086B1816086B986B1826086B986B197
S11306B0846086B987B18F7D87B986B1806886B931
S11306C0089597B1907E97B997B1892B87B986B170
S11306D0806486B93699FECF84B195B10895982F78
S11306E09695969596958770613031F008F454C0CC
S11306F0623009F4A1C008959130C1F028F092301D
S113070039F19330B9F108954AB321E030E0B901E9
S113071002C0660F771F8A95E2F7CB01962F90955A
S113072094239ABB9BB3892B8BBB089547B321E0D9
S113073030E0B90102C0660F771F8A95E2F7CB015A
S1130740962F9095942397BB98B3892B88BB0895D3
S113075044B321E030E0B90102C0660F771F8A95E7
S1130760E2F7CB01962F9095942394BB95B3892BF4
S113077085BB089541B321E030E0B90102C0660FA2
S1130780771F8A95E2F7CB01962F9095942391BB1E
S113079092B3892B82BB08959130C1F028F0923036
S11307A039F19330B9F108954AB321E030E0B90149
S11307B002C0660F771F8A95E2F7CB018095942FCC
S11307C098239ABB9BB389238BBB089547B321E03D
S11307D030E0B90102C0660F771F8A95E2F7CB01BA
S11307E08095942F982397BB98B3892388BB089549
S11307F044B321E030E0B90102C0660F771F8A9547
S1130800E2F7CB018095942F982394BB95B3892369
S113081085BB089541B321E030E0B90102C0660F01
S1130820771F8A95E2F7CB018095942F982391BB8B
S113083092B3892382BB0895913099F028F09230C5
S1130840E9F0933041F108954AB321E030E0B90171
S113085002C0660F771F8A95E2F7CB01842B8ABB0F
S1130860089547B321E030E0B90102C0660F771F55
S11308708A95E2F7CB01842B87BB089544B321E02A
S113088030E0B90102C0660F771F8A95E2F7CB0109
S1130890842B84BB089541B321E030E0B90102C048
S11308A0660F771F8A95E2F7CB01842B81BB0895ED
S11308B0CF93C0E009C0EC2FF0E0EF58FF4F608108
S11308C08C2F0E946F03CF5FC032A8F3CF9108959D
S11308D0982F96959695969587706130E1F59130AD
S11308E099F028F09230E9F0933041F108954BB338
S11308F021E030E0B90102C0660F771F8A95E2F764
S1130900CB01842B8BBB089548B321E030E0B901BF
S113091002C0660F771F8A95E2F7CB01842B88BB50
S1130920089545B321E030E0B90102C0660F771F96
S11309308A95E2F7CB01842B85BB089542B321E06D
S113094030E0B90102C0660F771F8A95E2F7CB0148
S1130950842B82BB089561113FC09130A1F028F02F
S11309609230F9F0933059F108954BB321E030E01F
S1130970B90102C0660F771F8A95E2F7CB01809513
S113098084238BBB089548B321E030E0B90102C051
S1130990660F771F8A95E2F7CB018095842388BB85
S11309A0089545B321E030E0B90102C0660F771F16
S11309B08A95E2F7CB018095842385BB089542B3E1
S11309C021E030E0B90102C0660F771F8A95E2F793
S11309D0CB018095842382BB08951F920F920FB69A
S11309E00F9211242F933F934F935F936F937F93B1
S11309F08F939F93AF93BF93EF93FF93E0919600F0
S1130A00F0919700309709F00995FF91EF91BF910C
S1130A10AF919F918F917F916F915F914F913F9192
S1130A202F910F900FBE0F901F9018951F920F9249
S1130A300FB60F9211242F933F934F935F936F93AD
S1130A407F938F939F93AF93BF93EF93FF93E09123
S1130A509400F0919500309709F00995FF91EF917A
S1130A60BF91AF919F918F917F916F915F914F91C2
S1130A703F912F910F900FBE0F901F9018951F92CA
S1130A800F920FB60F9211242F933F934F935F93BE
S1130A906F937F938F939F93AF93BF93EF93FF9342
S1130AA0E0919200F0919300309709F00995FF913D
S1130AB0EF91BF91AF919F918F917F916F915F91D2
S1130AC04F913F912F910F900FBE0F901F9018954B
S1130AD0813069F028F0823089F08330B1F01BC096
S1130AE083B78F7B83BF83B7877F83BF14C083B7EC
S1130AF0806483BF83B7877F83BF0DC083B78F7B39
S1130B0083BF83B7886083BF06C083B7806483BF15
S1130B1083B7886083BF862F90E08830910508F002
S1130B2054C0FC01EF5CFF4F0C943D0983B78E7FEA
S1130B3083BF83B78D7F83BF83B78B7F83BF45C05C
S1130B4083B7816083BF83B78D7F83BF83B78B7F78
S1130B5083BF3BC083B78E7F83BF83B7826083BF6D
S1130B6083B78B7F83BF31C083B7816083BF83B773
S1130B70826083BF83B78B7F83BF27C083B78E7F99
S1130B8083BF83B78D7F83BF83B7846083BF1DC05A
S1130B9083B7816083BF83B78D7F83BF83B784604E
S1130BA083BF13C083B78E7F83BF83B7826083BF45
S1130BB083B7846083BF09C083B7816083BF83B771
S1130BC0826083BF83B7846083BF413069F028F0BB
S1130BD04230C1F0433079F0089583B78F7E83BFEC
S1130BE083B78F7D83BF089583B7806183BF83B745
S1130BF08F7D83BF089583B78F7E83BF83B7806261
S1130C0083BF089583B7806183BF83B7806283BF46
S1130C1008951F920F920FB60F9211242F933F93B2
S1130C204F935F936F937F938F939F93AF93BF93F0
S1130C30EF93FF93E0919A00F0919B00309709F0B5
S1130C400995FF91EF91BF91AF919F918F917F9102
S1130C506F915F914F913F912F910F900FBE0F9025
S1130C601F9018951F920F920FB60F9211242F9375
S1130C703F934F935F936F937F938F939F93AF9320
S1130C80BF93EF93FF93E0919800F0919900099539
S1130C90FF91EF91BF91AF919F918F917F916F9150
S1130CA05F914F913F912F910F900FBE0F901F9026
S1130CB018951F920F920FB60F9211242F933F9302
S1130CC04F935F936F937F938F939F93AF93BF9350
S1130CD0EF93FF93E091A200F091A3000995FF9197
S1130CE0EF91BF91AF919F918F917F916F915F91A0
S1130CF04F913F912F910F900FBE0F901F90189519
S1130D001F920F920FB60F9211242F933F934F937C
S1130D105F936F937F938F939F93AF93BF93EF935F
S1130D20FF93E091A000F091A1000995FF91EF914C
S1130D30BF91AF919F918F917F916F915F914F91EF
S1130D403F912F910F900FBE0F901F9018951F92F7
S1130D500F920FB60F9211242F933F934F935F93EB
S1130D606F937F938F939F93AF93BF93EF93FF936F
S1130D70E0919E00F0919F000995FF91EF91BF9142
S1130D80AF919F918F917F916F915F914F913F911F
S1130D902F910F900FBE0F901F9018951F920F92D6
S1130DA00FB60F9211242F933F934F935F936F933A
S1130DB07F938F939F93AF93BF93EF93FF93E091B0
S1130DC09C00F0919D000995FF91EF91BF91AF9127
S1130DD09F918F917F916F915F914F913F912F914F
S1130DE00F900FBE0F901F9018951F920F920FB681
S1130DF00F9211242F933F934F935F936F937F939D
S1130E008F939F93AF93BF93EF93FF93E091A600CB
S1130E10F091A700309709F00995FF91EF91BF91E8
S1130E20AF919F918F917F916F915F914F913F917E
S1130E302F910F900FBE0F901F9018951F920F9235
S1130E400FB60F9211242F933F934F935F936F9399
S1130E507F938F939F93AF93BF93EF93FF93E0910F
S1130E60A400F091A5000995FF91EF91BF91AF9176
S1130E709F918F917F916F915F914F913F912F91AE
S1130E800F900FBE0F901F9018950E9461039C0154
S1130E90A8E8B3E10E9443099B01AC01012E1AE0CA
S1130EA056954795379527951A95D1F7102DADECA2
S1130EB0BCEC0E94430996958795969587959695DF
S1130EC0879508955058BB27AA270E947A070C9447
S1130ED082080E94740838F00E947B0820F039F4DC
S1130EE09F3F19F426F40C9471080EF4E095E7FB87
S1130EF00C946B08E92F0E94930858F3BA17620701
S1130F0073078407950720F079F4A6F50C94B508C7
S1130F100EF4E0950B2EBA2FA02D0B01B901900110
S1130F200C01CA01A0011124FF27591B99F0593F54
S1130F3050F4503E68F11A16F040A22F232F342F9C
S1130F404427585FF3CF469537952795A795F040EA
S1130F505395C9F77EF41F16BA0B620B730B840BFF
S1130F60BAF09150A1F0FF0FBB1F661F771F881FB7
S1130F70C2F70EC0BA0F621F731F841F48F487950F
S1130F8077956795B795F7959E3F08F0B0CF939501
S1130F90880F08F09927EE0F9795879508950E947A
S1130FA0470808F481E008950E94DB076894B111B2
S1130FB00C94B60808950E949B0888F09F5798F0F7
S1130FC0B92F9927B751B0F0E1F0660F771F881F4A
S1130FD0991F1AF0BA95C9F714C0B13091F00E9464
S1130FE0B508B1E008950C94B508672F782F8827C9
S1130FF0B85F39F0B93FCCF3869577956795B3958B
S1131000D9F73EF490958095709561957F4F8F4FF9
S11310109F4F0895E89409C097FB3EF490958095FE
S1131020709561957F4F8F4F9F4F9923A9F0F92FAA
S113103096E9BB279395F695879577956795B79528
S1131040F111F8CFFAF4BB0F11F460FF1BC06F5F0E
S11310507F4F8F4F9F4F16C0882311F096E911C020
S1131060772321F09EE8872F762F05C0662371F041
S113107096E8862F70E060E02AF09A95660F771F55
S1131080881FDAF7880F9695879597F90895990F31
S11310900008550FAA0BE0E8FEEF16161706E8073E
S11310A0F907C0F012161306E407F50798F0621B5F
S11310B0730B840B950B39F40A2661F0232B242B34
S11310C0252B21F408950A2609F4A140A6958FEF53
S11310D0811D811D089597F99F6780E870E060E0A5
S11310E008959FEF80EC089500240A9416161706BD
S11310F018060906089500240A9412161306140605
S113110005060895092E0394000C11F4882352F067
S1131110BB0F40F4BF2B11F460FF04C06F5F7F4F1F
S11311208F4F9F4F089557FD9058440F551F59F006
S11311305F3F71F04795880F97FB991F61F09F3FC0
S113114079F087950895121613061406551FF2CFE9
S11311504695F1DF08C0161617061806991FF1CF39
S113116086957105610508940895E894BB27662760
S11311707727CB0197F908950E94CF080C94820831
S11311800E94740838F00E947B0820F0952311F027
S11311900C946B080C94710811240C94B6080E94EA
S11311A0930870F3959FC1F3950F50E0551F629F0C
S11311B0F001729FBB27F00DB11D639FAA27F00DAC
S11311C0B11DAA1F649F6627B00DA11D661F829FD3
S11311D02227B00DA11D621F739FB00DA11D621FB8
S11311E0839FA00D611D221F749F3327A00D611DD5
S11311F0231F849F600D211D822F762F6A2F1124B7
S11312009F5750409AF0F1F088234AF0EE0FFF1FE9
S1131210BB1F661F771F881F91505040A9F79E3F40
S1131220510580F00C946B080C94B6085F3FE4F30E
S1131230983ED4F3869577956795B795F795E79596
S11312409F5FC1F7FE2B880F911D9695879597F99F
S1131250089597FB072E16F4009407D077FD09D064
S11312600E94520907FC05D03EF4909581959F4F4A
S11312700895709561957F4F0895EE0FFF1F0590B7
S1131280F491E02D0994A29FB001B39FC001A39FE4
S1131290700D811D1124911DB29F700D811D1124AB
S11312A0911D0895AA1BBB1B51E107C0AA1FBB1FB8
S11312B0A617B70710F0A61BB70B881F991F5A95DE
S11312C0A9F780959095BC01CD010895F894FFCFBE
S11312D054656D70203A20005370656564203A208F
S11312E000010101020202020202020202020202DF
S11312F002020202020101010102020101020202D0
S10513000200E5
S9030000FC
